:0300000002000EED
:20000B0002003175817F12003530A11030A20302001474CFF5B030A10302001D74CFF5B057
:20002B0030A2EF02002775B00F3212007A1201EA12004475A802D2AF22C08F758F04C0B2FB
:20004B0075B20175C8FF75C9FF75B20075C900D0B2D08F22C08F758F04C0B275B20143A0B8
:20006B000F43A10F75B20053A1F0D0B2D08F22C08F758F04C0B275B20075B1FFD0B2D08F6F
:20008B0022C08F758F04C0B275B200D287D28375B203D283D28775B20043860853867FD09D
:2000AB00B2D08F22C08F758F04C0B275B200D283D2874386801201B0C2871201B0C28312F5
:2000CB0001B0D0B2D08F22C08F758F04C0B275B200438680C2871201B0D2831201B0D287AB
:2000EB001201B053867FD0B2D08F22C0E0C0F0C08F758F04C0B275B20075F00843868033AE
:20010B0092871201B0D2831201B0C283D5F0F053867F1201B0D283A2871201B0C283D0B2C3
:20012B00D08FD0F0D0E022C08F758F04C0B275B200C0F0C0D075F00853867F1201B0D283B6
:20014B00A287331201B0C283D5F0F0438680C2871201B0D2831201B0C28353867FD0D0D001
:20016B00F0D0B2D08F22C08F758F04C0B275B200C0F0C0D075F00853867F1201B0D283A2D2
:20018B0087331201B0C283D5F0F0438680D2871201B0D2831201B0C28353867FD0D0D0F063
:2001AB00D0B2D08F22C0E0C0D075E01AD5E0FDD0D0D0E022C0E0C0D0C0F075F0321201D80C
:2001CB00D5F0FAD5E0F4D0F0D0D0D0E022C0E0C0D075E0641201B0D5E0FAD0D0D0E022C0ED
:2001EB00E0C0D0C0F012008C75F0FD12038E7410120387D5E0FA7430120346120387743023
:20020B00120346120387743012034612038774201203461203877428120330120387740FB6
:20022B0012033012038774011203301203877406120330120387D0F0D0D0D0E022C0E0C08F
:20024B00D0B480005046B42000503CB40C077401120330803AB40107740F1203308030B476
:20026B000207740E1203308026B40307740C120330801CB40D0774021203308012B40A0FFC
:20028B0074C012033080081202F68003120330D0D0D0E022C0E0C0D0540F2430B43A0040F9
:2002AB000224071202F6D0D0D0E022C0E0C0D0C412029FC412029FD0D0D0E022C0E0C0D0CA
:2002CB00E5831202B6E5821202B6D0D0D0E022C0E0C0D0C083C082E4936007120248A302AA
:2002EB0002E2D082D083D0D0D0E022C0E0C0D0120306C4120306D0D0D0E022C0E0C0D0C06C
:20030B00F01203A7D2F0C2F154F0030353F0C342F012038ED2F112038EC2F112038ED0F010
:20032B00D0D0D0E022C0E0C0D0120346120387C4120346120387D0D0D0E022C0E0C0D0C0FC
:20034B00F01203A7C2F0C2F154F0030353F0C342F012038ED2F112038EC2F112038ED0F0E0
:20036B00D0D0D0E02274401203307400931202F620E703A380F47480120330221201D8127D
:20038B0001D822C0E0C0D01200AF74401200F6E5F01200F61200D2D0D0D0E022C0E0C0D047
:2003AB001200AF74411200F61201711200D2F5F0D0D0D0E022C0F01203A7C2F612038ED05E
:2003CB00F022C0F01203A7D2F612038ED0F022C0F01203A7C2F712038ED0F022C0F01203D8
:2003EB00A7D2F712038ED0F02208200800C0E0C08F758F04C0B2C0BF75BF0075B2025390A5
:20040B00FD4390015391FE43910275B2005391FE43910275985075BE9B75BD11D0BFD0B2EA
:20042B00D08FD0E022F5993099FDC29922C0E0C0D0540F120528120430120491D0D0D0E0A0
:20044B0022C0E0C0D0C0E0C4120438D0E0120438D0D0D0E022C0E0C0D0E58312044CE582BC
:20046B0012044CD0D0D0E022C0E0C0D0C082C083E4936009120430120491A380F3D083D0E2
:20048B0082D0D0D0E022C0E0C0D0109805D0D0D0E022E599B413F61098F380FB3098FDC236
:2004AB0098E599221204A712051B120532400EC4F81204A712051B12053240014822785408
:2004CB001204A7547F12051BB40D02F622B40813B85407740712043080E6189003F41204B6
:2004EB007380DD12050D40EBB87E0280E6F60880E478547954E6B4200508B880F822F70920
:20050B0080F7B420004007B47F005002C322D322B47B005007B461004002942022B40A006E
:20052B0040022407243022C394304010B40A00400A94074007B41000B34001C322E6120572
:20054B0032221205484009C4F9081205484001492212054D400AF5830812054D4002F58279
:20056B0022C08F758F0475D10075CAB075CE0A75CC8075D10675CC01D08F22C08F758F044E
:20058B0075D10675CB2075D1000000E5CB20E0FB75D102E5CB85CAF0D08F22C08F758F04A4
:2005AB0075D10675CB1075D1000000E5CB20E0FB75D102E5CB85CAF0D08F22C0E0C0D0C0FB
:2005CB0070C071C072C073C074C075C076C077C078C079C07AC07BC07C75700075710075D2
:2005EB007200757300757400757500757600757700757800757900757A00757B00757C2021
:20060B00EB13FBEA13FAE913F9E813F8502CEC2574F574ED3575F575EE3576F576EF3577ED
:20062B00F577E5703578F578E5713579F579E572357AF57AE573357BF57BC3EC33FCED3377
:20064B00FDEE33FEEF33FFE57033F570E57133F571E57233F572E57333F573D57CA2A87483
:20066B00A975AA76AB77AC78AD79AE7AAF7BD07CD07BD07AD079D078D077D076D075D074EB
:20068B00D073D072D071D070D0D0D0E022C0E0C0D0C070C071C072C073C074C075C07675CD
:2006AB007000757100757200757300757400757500757610E913F9E813F85016EA2572F578
:2006CB0072EB3573F573E5703574F574E5713575F575C3EA33FAEB33FBE57033F570E5719B
:2006EB0033F571D576CEA872A973AA74AB75D076D075D074D073D072D071D070D0D0D0E0A4
:20070B0022C0E0C0D0C070C071C072C073C074C075C076C077C078C079C07AC07BC07C7549
:20072B007000757100757200757300757400757500757600757700757800757900757A0015
:20074B00757B00757C20E833F8E933F9EA33FAEB33FBE57033F570E57133F571E57233F5DA
:20076B0072E57333F573C3E5709CF574E5719DF575E5729EF576E5739FF577400C85747017
:20078B00857571857672857773B3E57833F578E57933F579E57A33F57AE57B33F57BD57C03
:2007AB00A5AC78AD79AE7AAF7BA870A971AA72AB73D07CD07BD07AD079D078D077D076D0B2
:2007CB0075D074D073D072D071D070D0D0D0E022C0E0C0D0C070C071C072C073C074C0757E
:2007EB00C076757000757100757200757300757400757500757610E833F8E933F9E57033A0
:20080B00F570E57133F571C3E5709AF572E5719BF5734006857270857371B3E57433F57449
:20082B00E57533F575D576CFAA74AB75A870A971D076D075D074D073D072D071D070D0D0B7
:20084B00D0E022C0E0C0D0E82CF8E93DF9EA3EFAEB3FFB74003400FCD0D0D0E022C0E0C0A3
:20086B00D0E82AF8E93BF974003400FAD0D0D0E022C0E0C0D0C3E89CF8E99DF9EA9EFAEB07
:20088B009FFB74009400FCD0D0D0E022C0E0C0D0C3E89AF8E99BF974009400FAD0D0D0E001
:2008AB0022C0E0C0D0C077C078C0797579057B007A0A1207DBE8C0E0EAF8EBF9D579EFD0F2
:2008CB00E0FAD0E0C4F579D0E02579F9D0E0C4F579D0E02579F8D079D078D077D0D0D0E0BA
:2008EB0022C0D0C0F075F00A84C425F0D0F0D0D022C0F0C0E0C0D0E8540FC0E0E8C4540F63
:20090B0075F00AA4D0F025F0C0E0E954F0C4C0E0E9540F75F064A4A9F0F8D0E075F00AA4A6
:20092B0075F064A428F8E935F0F9D0E028F8740039F9D0D0D0E0D0F022C0D0C0F0C070F50B
:20094B007053700F54F0C475F00AA42570D070D0F0D0D022C083C082C0D0C08FC0B2C0BF83
:20096B00758F0475BF0143B70843B70453B6F743B60490F000A3E582458370F943B602E597
:20098B00B620E1FB30E0F5E5B7540F44A075BB98F5B753B7FB43B702E5B720E0FB53B7F7A5
:1809AB0043B610D0BFD0B2D08FD0D0D082D08322438F0122538FFE225D
:00000001FF
