:03000000020022D9
:20000B00C0E0C0F0C0D005711205A0B5710092B6D0D0D0F0D0E03275817F12002F74CFF52A
:20002B00B002002C1200741201E412003E75A802D2AF22C08F758F04C0B275B20175C8FF1B
:20004B0075C9FF75B20075C900D0B2D08F22C08F758F04C0B275B20143A00F43A10F75B2F3
:20006B000053A1F0D0B2D08F22C08F758F04C0B275B20075B1FFD0B2D08F22C08F758F041F
:20008B00C0B275B200D287D28375B203D283D28775B20043860853867FD0B2D08F22C08F94
:2000AB00758F04C0B275B200D283D2874386801201AAC2871201AAC2831201AAD0B2D08FF7
:2000CB0022C08F758F04C0B275B200438680C2871201AAD2831201AAD2871201AA53867F34
:2000EB00D0B2D08F22C0E0C0F0C08F758F04C0B275B20075F0084386803392871201AAD221
:20010B00831201AAC283D5F0F053867F1201AAD283A2871201AAC283D0B2D08FD0F0D0E0B4
:20012B0022C08F758F04C0B275B200C0F0C0D075F00853867F1201AAD283A287331201AA72
:20014B00C283D5F0F0438680C2871201AAD2831201AAC28353867FD0D0D0F0D0B2D08F2239
:20016B00C08F758F04C0B275B200C0F0C0D075F00853867F1201AAD283A287331201AAC292
:20018B0083D5F0F0438680D2871201AAD2831201AAC28353867FD0D0D0F0D0B2D08F22C0EB
:2001AB00E0C0D075E01AD5E0FDD0D0D0E022C0E0C0D0C0F075F0321201D2D5F0FAD5E0F46D
:2001CB00D0F0D0D0D0E022C0E0C0D075E0641201AAD5E0FAD0D0D0E022C0E0C0D0C0F01229
:2001EB00008675F0FD1203887410120381D5E0FA7430120340120381743012034012038188
:20020B0074301203401203817420120340120381742812032A120381740F12032A120381FC
:20022B00740112032A120381740612032A120381D0F0D0D0D0E022C0E0C0D0B480005046EE
:20024B00B42000503CB40C07740112032A803AB40107740F12032A8030B40207740E12037C
:20026B002A8026B40307740C12032A801CB40D07740212032A8012B40A0F74C012032A80BB
:20028B00081202F0800312032AD0D0D0E022C0E0C0D0540F2430B43A00400224071202F0CD
:2002AB00D0D0D0E022C0E0C0D0C4120299C4120299D0D0D0E022C0E0C0D0E5831202B0E5FC
:2002CB00821202B0D0D0D0E022C0E0C0D0C083C082E4936007120242A30202DCD082D0834A
:2002EB00D0D0D0E022C0E0C0D0120300C4120300D0D0D0E022C0E0C0D0C0F01203A1D2F099
:20030B00C2F154F0030353F0C342F0120388D2F1120388C2F1120388D0F0D0D0D0E022C05E
:20032B00E0C0D0120340120381C4120340120381D0D0D0E022C0E0C0D0C0F01203A1C2F0EE
:20034B00C2F154F0030353F0C342F0120388D2F1120388C2F1120388D0F0D0D0D0E022746A
:20036B004012032A7400931202F020E703A380F4748012032A221201D21201D222C0E0C026
:20038B00D01200A974401200F0E5F01200F01200CCD0D0D0E022C0E0C0D01200A974411238
:2003AB0000F012016B1200CCF5F0D0D0D0E022C0F01203A1C2F6120388D0F022C0F012032D
:2003CB00A1D2F6120388D0F022C0F01203A1C2F7120388D0F022C0F01203A1D2F7120388C0
:2003EB00D0F02208200800C0E0C08F758F04C0B2C0BF75BF0075B2025390FD439001539103
:20040B00FE43910275B2005391FE43910275985075BE9B75BD11D0BFD0B2D08FD0E022F579
:20042B00993099FDC29922C0E0C0D0540F12052212042A12048BD0D0D0E022C0E0C0D0C0C6
:20044B00E0C4120432D0E0120432D0D0D0E022C0E0C0D0E583120446E582120446D0D0D014
:20046B00E022C0E0C0D0C082C083E493600912042A12048BA380F3D083D082D0D0D0E022CC
:20048B00C0E0C0D0109805D0D0D0E022E599B413F61098F380FB3098FDC298E599221204DC
:2004AB00A112051512052C400EC4F81204A112051512052C4001482278541204A1547F12DE
:2004CB000515B40D02F622B40813B85407740712042A80E6189003EE12046D80DD12050782
:2004EB0040EBB87E0280E6F60880E478547954E6B4200508B880F822F70980F7B420004089
:20050B0007B47F005002C322D322B47B005007B461004002942022B40A0040022407243038
:20052B0022C394304010B40A00400A94074007B41000B34001C322E612052C22120542404C
:20054B0009C4F90812054240014922120547400AF583081205474002F58222C08F758F0405
:20056B0075D10075CAB075CE0A75CC8075D10675CC01D08F22C08F758F0475D10675CB201B
:20058B0075D1000000E5CB20E0FB75D102E5CB85CAF0D08F22C08F758F0475D10675CB10B4
:2005AB0075D1000000E5CB20E0FB75D102E5CB85CAF0D08F22C0E0C0D0C070C071C072C004
:2005CB0073C074C075C076C077C078C079C07AC07BC07C7570007571007572007573007596
:2005EB007400757500757600757700757800757900757A00757B00757C20EB13FBEA13FA00
:20060B00E913F9E813F8502CEC2574F574ED3575F575EE3576F576EF3577F577E57035786F
:20062B00F578E5713579F579E572357AF57AE573357BF57BC3EC33FCED33FDEE33FEEF33A7
:20064B00FFE57033F570E57133F571E57233F572E57333F573D57CA2A874A975AA76AB7761
:20066B00AC78AD79AE7AAF7BD07CD07BD07AD079D078D077D076D075D074D073D072D07185
:20068B00D070D0D0D0E022C0E0C0D0C070C071C072C073C074C075C07675700075710075C8
:2006AB007200757300757400757500757610E913F9E813F85016EA2572F572EB3573F573D6
:2006CB00E5703574F574E5713575F575C3EA33FAEB33FBE57033F570E57133F571D576CE56
:2006EB00A872A973AA74AB75D076D075D074D073D072D071D070D0D0D0E022C0E0C0D0C044
:20070B0070C071C072C073C074C075C076C077C078C079C07AC07BC07C7570007571007590
:20072B007200757300757400757500757600757700757800757900757A00757B00757C20DF
:20074B00E833F8E933F9EA33FAEB33FBE57033F570E57133F571E57233F572E57333F57376
:20076B00C3E5709CF574E5719DF575E5729EF576E5739FF577400C857470857571857672A4
:20078B00857773B3E57833F578E57933F579E57A33F57AE57B33F57BD57CA5AC78AD79AE3E
:2007AB007AAF7BA870A971AA72AB73D07CD07BD07AD079D078D077D076D075D074D073D083
:2007CB0072D071D070D0D0D0E022C0E0C0D0C070C071C072C073C074C075C07675700075BA
:2007EB007100757200757300757400757500757610E833F8E933F9E57033F570E57133F54D
:20080B0071C3E5709AF572E5719BF5734006857270857371B3E57433F574E57533F575D560
:20082B0076CFAA74AB75A870A971D076D075D074D073D072D071D070D0D0D0E022C0E0C051
:20084B00D0E82CF8E93DF9EA3EFAEB3FFB74003400FCD0D0D0E022C0E0C0D0E82AF8E93BD7
:20086B00F974003400FAD0D0D0E022C0E0C0D0C3E89CF8E99DF9EA9EFAEB9FFB7400940063
:20088B00FCD0D0D0E022C0E0C0D0C3E89AF8E99BF974009400FAD0D0D0E022C0E0C0D0C091
:2008AB0077C078C0797579057B007A0A1207D5E8C0E0EAF8EBF9D579EFD0E0FAD0E0C4F5C7
:2008CB0079D0E02579F9D0E0C4F579D0E02579F8D079D078D077D0D0D0E022C0D0C0F07526
:2008EB00F00A84C425F0D0F0D0D022C0F0C0E0C0D0E8540FC0E0E8C4540F75F00AA4D0F067
:20090B0025F0C0E0E954F0C4C0E0E9540F75F064A4A9F0F8D0E075F00AA475F064A428F8EC
:20092B00E935F0F9D0E028F8740039F9D0D0D0E0D0F022C0D0C0F0C070F57053700F54F012
:20094B00C475F00AA42570D070D0F0D0D022C083C082C0D0C08FC0B2C0BF758F0475BF01CC
:20096B0043B70843B70453B6F743B60490F000A3E582458370F943B602E5B620E1FB30E012
:20098B00F5E5B7540F44A075BB98F5B753B7FB43B702E5B720E0FB53B7F743B610D0BFD0FF
:1209AB00B2D08FD0D0D082D08322438F0122538FFE22CB
:00000001FF
