:2000000075817F12004290004C75F00475207D740093F5B07401120034A3D5F0F2D50FEF2C
:2000200075207D740093F5B07401120034A3D5F0F2D50FEFC0E07521051201E8D521FAD024
:20004000E02212008A1201FA12005422FEFBFDF7F7FDFBFEC08F758F04C0B275B20175C865
:20006000FF75C9FF75B20075C900D0B2D08F22C08F758F04C0B275B20143A00F43A10F7591
:20008000B20053A1F0D0B2D08F22C08F758F04C0B275B20075B1FFD0B2D08F22C08F758F5C
:2000A00004C0B275B200D287D28375B203D283D28775B20043860853867FD0B2D08F22C00A
:2000C0008F758F04C0B275B200D283D2874386801201C0C2871201C0C2831201C0D0B2D0A0
:2000E0008F22C08F758F04C0B275B200438680C2871201C0D2831201C0D2871201C05386CD
:200100007FD0B2D08F22C0E0C0F0C08F758F04C0B275B20075F0084386803392871201C048
:20012000D2831201C0C283D5F0F053867F1201C0D283A2871201C0C283D0B2D08FD0F0D06B
:20014000E022C08F758F04C0B275B200C0F0C0D075F00853867F1201C0D283A28733120111
:20016000C0C283D5F0F0438680C2871201C0D2831201C0C28353867FD0D0D0F0D0B2D08F5A
:2001800022C08F758F04C0B275B200C0F0C0D075F00853867F1201C0D283A287331201C0F1
:2001A000C283D5F0F0438680D2871201C0D2831201C0C28353867FD0D0D0F0D0B2D08F22A8
:2001C000C0E0C0D075E01AD5E0FDD0D0D0E022C0E0C0D0C0F075F0321201E8D5F0FAD5E076
:2001E000F4D0F0D0D0D0E022C0E0C0D075E0641201C0D5E0FAD0D0D0E022C0E0C0D0C0F01C
:2002000012009C75F0FD12039E7410120397D5E0FA7430120356120397743012035612035D
:2002200097743012035612039774201203561203977428120340120397740F120340120337
:200240009774011203401203977406120340120397D0F0D0D0D0E022C0E0C0D0B480005030
:2002600046B42000503CB40C077401120340803AB40107740F1203408030B40207740E12F8
:2002800003408026B40307740C120340801CB40D0774021203408012B40A0F74C0120340CB
:2002A00080081203068003120340D0D0D0E022C0E0C0D0540F2430B43A00400224071203FA
:2002C00006D0D0D0E022C0E0C0D0C41202AFC41202AFD0D0D0E022C0E0C0D0E5831202C684
:2002E000E5821202C6D0D0D0E022C0E0C0D0C083C082E4936007120258A30202F2D082D091
:2003000083D0D0D0E022C0E0C0D0120316C4120316D0D0D0E022C0E0C0D0C0F01203B7D2AE
:20032000F0C2F154F0030353F0C342F012039ED2F112039EC2F112039ED0F0D0D0D0E022D7
:20034000C0E0C0D0120356120397C4120356120397D0D0D0E022C0E0C0D0C0F01203B7C29B
:20036000F0C2F154F0030353F0C342F012039ED2F112039EC2F112039ED0F0D0D0D0E02297
:20038000744012034074009312030620E703A380F47480120340221201E81201E822C0E0EE
:2003A000C0D01200BF7440120106E5F01201061200E2D0D0D0E022C0E0C0D01200BF744105
:2003C0001201061201811200E2F5F0D0D0D0E022C0F01203B7C2F612039ED0F022C0F0129A
:2003E00003B7D2F612039ED0F022C0F01203B7C2F712039ED0F022C0F01203B7D2F71203C2
:200400009ED0F02208200800C0E0C08F758F04C0B2C0BF75BF0075B2025390FD43900153E0
:2004200091FE43910275B2005391FE43910275985075BE9B75BD11D0BFD0B2D08FD0E022C8
:20044000F5993099FDC29922C0E0C0D0540F1205381204401204A1D0D0D0E022C0E0C0D03A
:20046000C0E0C4120448D0E0120448D0D0D0E022C0E0C0D0E58312045CE58212045CD0D0B7
:20048000D0E022C0E0C0D0C082C083E49360091204401204A1A380F3D083D082D0D0D0E0DD
:2004A00022C0E0C0D0109805D0D0D0E022E599B413F61098F380FB3098FDC298E5992212A9
:2004C00004B712052B120542400EC4F81204B712052B1205424001482278541204B7547F3D
:2004E00012052BB40D02F622B40813B85407740712044080E61890040412048380DD120509
:200500001D40EBB87E0280E6F60880E478547954E6B4200508B880F822F70980F7B4200096
:200520004007B47F005002C322D322B47B005007B461004002942022B40A00400224072413
:200540003022C394304010B40A00400A94074007B41000B34001C322E6120542221205581B
:200560004009C4F9081205584001492212055D400AF5830812055D4002F58222C08F758F72
:200580000475D10075CAB075CE0A75CC8075D10675CC01D08F22C08F758F0475D10675CB22
:2005A0002075D1000000E5CB20E0FB75D102E5CB85CAF0D08F22C08F758F0475D10675CB8F
:2005C0001075D1000000E5CB20E0FB75D102E5CB85CAF0D08F22C0E0C0D0C070C071C0729F
:2005E000C073C074C075C076C077C078C079C07AC07BC07C75700075710075720075730036
:20060000757400757500757600757700757800757900757A00757B00757C20EB13FBEA136F
:20062000FAE913F9E813F8502CEC2574F574ED3575F575EE3576F576EF3577F577E57035D8
:2006400078F578E5713579F579E572357AF57AE573357BF57BC3EC33FCED33FDEE33FEEF4D
:2006600033FFE57033F570E57133F571E57233F572E57333F573D57CA2A874A975AA76AB90
:2006800077AC78AD79AE7AAF7BD07CD07BD07AD079D078D077D076D075D074D073D072D06A
:2006A00071D070D0D0D0E022C0E0C0D0C070C071C072C073C074C075C076757000757100B7
:2006C000757200757300757400757500757610E913F9E813F85016EA2572F572EB3573F5BF
:2006E00073E5703574F574E5713575F575C3EA33FAEB33FBE57033F570E57133F571D5769C
:20070000CEA872A973AA74AB75D076D075D074D073D072D071D070D0D0D0E022C0E0C0D020
:20072000C070C071C072C073C074C075C076C077C078C079C07AC07BC07C75700075710030
:20074000757200757300757400757500757600757700757800757900757A00757B00757C75
:2007600020E833F8E933F9EA33FAEB33FBE57033F570E57133F571E57233F572E57333F5B4
:2007800073C3E5709CF574E5719DF575E5729EF576E5739FF577400C85747085757185768E
:2007A00072857773B3E57833F578E57933F579E57A33F57AE57B33F57BD57CA5AC78AD7965
:2007C000AE7AAF7BA870A971AA72AB73D07CD07BD07AD079D078D077D076D075D074D07390
:2007E000D072D071D070D0D0D0E022C0E0C0D0C070C071C072C073C074C075C0767570004A
:20080000757100757200757300757400757500757610E833F8E933F9E57033F570E57133B7
:20082000F571C3E5709AF572E5719BF5734006857270857371B3E57433F574E57533F5752B
:20084000D576CFAA74AB75A870A971D076D075D074D073D072D071D070D0D0D0E022C0E027
:20086000C0D0E82CF8E93DF9EA3EFAEB3FFB74003400FCD0D0D0E022C0E0C0D0E82AF8E93D
:200880003BF974003400FAD0D0D0E022C0E0C0D0C3E89CF8E99DF9EA9EFAEB9FFB74009413
:2008A00000FCD0D0D0E022C0E0C0D0C3E89AF8E99BF974009400FAD0D0D0E022C0E0C0D03C
:2008C000C077C078C0797579057B007A0A1207EBE8C0E0EAF8EBF9D579EFD0E0FAD0E0C4D1
:2008E000F579D0E02579F9D0E0C4F579D0E02579F8D079D078D077D0D0D0E022C0D0C0F091
:2009000075F00A84C425F0D0F0D0D022C0F0C0E0C0D0E8540FC0E0E8C4540F75F00AA4D0CC
:20092000F025F0C0E0E954F0C4C0E0E9540F75F064A4A9F0F8D0E075F00AA475F064A428DF
:20094000F8E935F0F9D0E028F8740039F9D0D0D0E0D0F022C0D0C0F0C070F57053700F54F5
:20096000F0C475F00AA42570D070D0F0D0D022C083C082C0D0C08FC0B2C0BF758F0475BFC8
:200980000143B70843B70453B6F743B60490F000A3E582458370F943B602E5B620E1FB30DC
:2009A000E0F5E5B7540F44A075BB98F5B753B7FB43B702E5B720E0FB53B7F743B610D0BFDA
:1309C000D0B2D08FD0D0D082D08322438F0122538FFE22E5
:00000001FF
