:0300000002000EED
:20000B0002007575817F12005420A3FDD28C308D11A870A9717A017B001208A988708971BA
:20002B00C28D30A221A870A9717AB77B0012081C8A708B717480120289E5711202F7E57022
:20004B001202F702001902001412022B1200BB1200A01200857520FE75A80285018975705E
:20006B0000757100D2AF2202000EC0E0C0D0E52003F520F5B0D0D0D0E032C08F758F04C051
:20008B00B275B20175C8FF75C9FF75B20075C900D0B2D08F22C08F758F04C0B275B2014366
:2000AB00A00F43A10F75B20053A1F0D0B2D08F22C08F758F04C0B275B20075B1FFD0B2D01E
:2000CB008F22C08F758F04C0B275B200D287D28375B203D283D28775B20043860853867F9E
:2000EB00D0B2D08F22C08F758F04C0B275B200D283D2874386801201F1C2871201F1C28375
:20010B001201F1D0B2D08F22C08F758F04C0B275B200438680C2871201F1D2831201F1D21C
:20012B00871201F153867FD0B2D08F22C0E0C0F0C08F758F04C0B275B20075F008438680D8
:20014B003392871201F1D2831201F1C283D5F0F053867F1201F1D283A2871201F1C283D0FE
:20016B00B2D08FD0F0D0E022C08F758F04C0B275B200C0F0C0D075F00853867F1201F1D206
:20018B0083A287331201F1C283D5F0F0438680C2871201F1D2831201F1C28353867FD0D04B
:2001AB00D0F0D0B2D08F22C08F758F04C0B275B200C0F0C0D075F00853867F1201F1D28323
:2001CB00A287331201F1C283D5F0F0438680D2871201F1D2831201F1C28353867FD0D0D0AE
:2001EB00F0D0B2D08F22C0E0C0D075E01AD5E0FDD0D0D0E022C0E0C0D0C0F075F0321202B3
:20020B0019D5F0FAD5E0F4D0F0D0D0D0E022C0E0C0D075E0641201F1D5E0FAD0D0D0E02212
:20022B00C0E0C0D0C0F01200CD75F0FD1203CF74101203C8D5E0FA74301203871203C8740D
:20024B00301203871203C874301203871203C874201203871203C874281203711203C8744D
:20026B000F1203711203C874011203711203C874061203711203C8D0F0D0D0D0E022C0E07A
:20028B00C0D0B480005046B42000503CB40C077401120371803AB40107740F1203718030A8
:2002AB00B40207740E1203718026B40307740C120371801CB40D0774021203718012B40A54
:2002CB000F74C012037180081203378003120371D0D0D0E022C0E0C0D0540F2430B43A0026
:2002EB0040022407120337D0D0D0E022C0E0C0D0C41202E0C41202E0D0D0D0E022C0E0C056
:20030B00D0E5831202F7E5821202F7D0D0D0E022C0E0C0D0C083C082E4936007120289A3D8
:20032B00020323D082D083D0D0D0E022C0E0C0D0120347C4120347D0D0D0E022C0E0C0D025
:20034B00C0F01203E8D2F0C2F154F0030353F0C342F01203CFD2F11203CFC2F11203CFD0FC
:20036B00F0D0D0D0E022C0E0C0D01203871203C8C41203871203C8D0D0D0E022C0E0C0D088
:20038B00C0F01203E8C2F0C2F154F0030353F0C342F01203CFD2F11203CFC2F11203CFD0CC
:2003AB00F0D0D0D0E022744012037174009312033720E703A380F474801203712212021959
:2003CB0012021922C0E0C0D01200F07440120137E5F0120137120113D0D0D0E022C0E0C07C
:2003EB00D01200F074411201371201B2120113F5F0D0D0D0E022C0F01203E8C2F61203CF96
:20040B00D0F022C0F01203E8D2F61203CFD0F022C0F01203E8C2F71203CFD0F022C0F012C6
:20042B0003E8D2F71203CFD0F02208200800C0E0C08F758F04C0B2C0BF75BF0075B202536F
:20044B0090FD4390015391FE43910275B2005391FE43910275985075BE9B75BD11D0BFD0CC
:20046B00B2D08FD0E022F5993099FDC29922C0E0C0D0540F1205691204711204D2D0D0D0CB
:20048B00E022C0E0C0D0C0E0C4120479D0E0120479D0D0D0E022C0E0C0D0E58312048DE55B
:2004AB008212048DD0D0D0E022C0E0C0D0C082C083E49360091204711204D2A380F3D0832D
:2004CB00D082D0D0D0E022C0E0C0D0109805D0D0D0E022E599B413F61098F380FB3098FDE8
:2004EB00C298E599221204E812055C120573400EC4F81204E812055C1205734001482278D4
:20050B00541204E8547F12055CB40D02F622B40813B85407740712047180E6189004351220
:20052B0004B480DD12054E40EBB87E0280E6F60880E478547954E6B4200508B880F822F762
:20054B000980F7B420004007B47F005002C322D322B47B005007B461004002942022B40A25
:20056B000040022407243022C394304010B40A00400A94074007B41000B34001C322E61237
:20058B000573221205894009C4F9081205894001492212058E400AF5830812058E4002F571
:2005AB008222C08F758F0475D10075CAB075CE0A75CC8075D10675CC01D08F22C08F758F90
:2005CB000475D10675CB2075D1000000E5CB20E0FB75D102E5CB85CAF0D08F22C08F758F64
:2005EB000475D10675CB1075D1000000E5CB20E0FB75D102E5CB85CAF0D08F22C0E0C0D077
:20060B00C070C071C072C073C074C075C076C077C078C079C07AC07BC07C75700075710046
:20062B00757200757300757400757500757600757700757800757900757A00757B00757C8B
:20064B0020EB13FBEA13FAE913F9E813F8502CEC2574F574ED3575F575EE3576F576EF3504
:20066B0077F577E5703578F578E5713579F579E572357AF57AE573357BF57BC3EC33FCEDF3
:20068B0033FDEE33FEEF33FFE57033F570E57133F571E57233F572E57333F573D57CA2A884
:2006AB0074A975AA76AB77AC78AD79AE7AAF7BD07CD07BD07AD079D078D077D076D075D0AB
:2006CB0074D073D072D071D070D0D0D0E022C0E0C0D0C070C071C072C073C074C075C0768E
:2006EB00757000757100757200757300757400757500757610E913F9E813F85016EA2572B8
:20070B00F572EB3573F573E5703574F574E5713575F575C3EA33FAEB33FBE57033F570E5D6
:20072B007133F571D576CEA872A973AA74AB75D076D075D074D073D072D071D070D0D0D0D2
:20074B00E022C0E0C0D0C070C071C072C073C074C075C076C077C078C079C07AC07BC07C9E
:20076B00757000757100757200757300757400757500757600757700757800757900757A60
:20078B0000757B00757C20E833F8E933F9EA33FAEB33FBE57033F570E57133F571E572338F
:2007AB00F572E57333F573C3E5709CF574E5719DF575E5729EF576E5739FF577400C857452
:2007CB0070857571857672857773B3E57833F578E57933F579E57A33F57AE57B33F57BD5CF
:2007EB007CA5AC78AD79AE7AAF7BA870A971AA72AB73D07CD07BD07AD079D078D077D076C6
:20080B00D075D074D073D072D071D070D0D0D0E022C0E0C0D0C070C071C072C073C074C0E2
:20082B0075C076757000757100757200757300757400757500757610E833F8E933F9E5701D
:20084B0033F570E57133F571C3E5709AF572E5719BF5734006857270857371B3E57433F54A
:20086B0074E57533F575D576CFAA74AB75A870A971D076D075D074D073D072D071D070D0D3
:20088B00D0D0E022C0E0C0D0E82CF8E93DF9EA3EFAEB3FFB74003400FCD0D0D0E022C0E053
:2008AB00C0D0E82AF8E93BF974003400FAD0D0D0E022C0E0C0D0C3E89CF8E99DF9EA9EFAF2
:2008CB00EB9FFB74009400FCD0D0D0E022C0E0C0D0C3E89AF8E99BF974009400FAD0D0D0B6
:2008EB00E022C0E0C0D0C077C078C0797579057B007A0A12081CE8C0E0EAF8EBF9D579EF60
:20090B00D0E0FAD0E0C4F579D0E02579F9D0E0C4F579D0E02579F8D079D078D077D0D0D089
:20092B00E022C0D0C0F075F00A84C425F0D0F0D0D022C0F0C0E0C0D0E8540FC0E0E8C45451
:20094B000F75F00AA4D0F025F0C0E0E954F0C4C0E0E9540F75F064A4A9F0F8D0E075F00AFB
:20096B00A475F064A428F8E935F0F9D0E028F8740039F9D0D0D0E0D0F022C0D0C0F0C0701C
:20098B00F57053700F54F0C475F00AA42570D070D0F0D0D022C083C082C0D0C08FC0B2C00D
:2009AB00BF758F0475BF0143B70843B70453B6F743B60490F000A3E582458370F943B6027D
:2009CB00E5B620E1FB30E0F5E5B7540F44A075BB98F5B753B7FB43B702E5B720E0FB53B777
:1909EB00F743B610D0BFD0B2D08FD0D0D082D08322438F0122538FFE2225
:00000001FF
